:04000000B6EF08F05F
:10060000003F065B4F666D7D077F6F777C395E79B3
:10061000710002BE06D0025023E1080E015CD8B082
:100620001FD003500410D8B40DD001C005F0010E46
:10063000066E052A02D0D8900636052EFCD7065045
:100640009212120001C005F0010E066E052A02D0BA
:10065000D8900636052EFCD70650FF0A92161200D7
:1006600002BE06D0025027E1100E015CD8B023D0A4
:1006700003500410D8B40FD001C005F0F80E0526C1
:10068000010E066E052A02D0D8900636052EFCD73C
:1006900006509312120001C005F0F80E0526010E57
:1006A000066E052A02D0D8900636052EFCD70650D5
:1006B000FF0A9316120002BE06D0025027E1180E60
:1006C000015CD8B023D003500410D8B40FD001C0BF
:1006D00005F0F00E0526010E066E052A02D0D89010
:1006E0000636052EFCD706509412120001C005F004
:1006F000F00E0526010E066E052A02D0D8900636A9
:10070000052EFCD70650FF0A9416120002BE06D032
:10071000025027E1200E015CD8B023D00350041012
:10072000D8B40FD001C005F0E80E0526010E066E04
:10073000052A02D0D8900636052EFCD70650951211
:10074000120001C005F0E80E0526010E066E052A0E
:1007500002D0D8900636052EFCD70650FF0A951613
:10076000120002BE06D0025026E1280E015CD8B06D
:10077000120003500410D8B40FD001C005F0E00EF1
:100780000526010E066E052A02D0D8900636052EE3
:10079000FCD706509612120001C005F0E00E0526A7
:1007A000010E066E052A02D0D8900636052EFCD71B
:1007B0000650FF0A9616120002BE06D0025023E130
:1007C000080E015CD8B01FD003500410D8B40DD06F
:1007D00001C005F0010E066E052A02D0D89006363B
:1007E000052EFCD706508012120001C005F0010E44
:1007F000066E052A02D0D8900636052EFCD7065084
:10080000FF0A8016120002BE06D0025027E1100E29
:10081000015CD8B023D0F80E0126FF0E022203504F
:100820000410D8B40DD001C005F0010E066E052AE3
:1008300002D0D8900636052EFCD706508112120041
:1008400001C005F0010E066E052A02D0D8900636CA
:10085000052EFCD70650FF0A8116120002BE06D0F4
:10086000025027E1180E015CD8B023D0F00E01260B
:10087000FF0E022203500410D8B40DD001C005F0C1
:10088000010E066E052A02D0D8900636052EFCD73A
:1008900006508212120001C005F0010E066E052AF4
:1008A00002D0D8900636052EFCD70650FF0A8216D5
:1008B000120002BE06D0025027E1200E015CD8B023
:1008C00023D0E80E0126FF0E022203500410D8B4F4
:1008D0000DD001C005F0010E066E052A02D0D89099
:1008E0000636052EFCD706508312120001C005F013
:1008F000010E066E052A02D0D8900636052EFCD7CA
:100900000650FF0A8316120002BE06D0025026E1EE
:10091000280E015CD8B01200E00E0126FF0E022264
:1009200003500410D8B40DD001C005F0010E066EBE
:10093000052A02D0D8900636052EFCD70650841220
:10094000120001C005F0010E066E052A02D0D890F3
:100950000636052EFCD70650FF0A84161200000E3C
:10096000956E000E026E020E016E000E046E000EF9
:10097000036EDCEC03F0000E026E030E016E000E3F
:10098000046E000E036EDCEC03F0000E026E040E2B
:10099000016E000E046E000E036EDCEC03F0000E20
:1009A000026E050E016E000E046E000E036EDCEC8E
:1009B00003F0000E836E5CD07750010F076E07C006
:1009C000F6FF060EF76E0800F5CF83FF000E026EED
:1009D000020E016E000E046E010E036EDCEC03F0DD
:1009E000010E786E12007650010F076E07C0F6FFF9
:1009F000060EF76E0800F5CF83FF000E026E030EA1
:100A0000016E000E046E010E036EDCEC03F0020EAC
:100A1000786E12007550010F076E07C0F6FF060EC4
:100A2000F76E0800F5CF83FF000E026E040E016E14
:100A3000000E046E010E036EDCEC03F0030E786E04
:100A400012007450010F076E07C0F6FF060EF76E16
:100A50000800F5CF83FF000E026E050E016E000E3A
:100A6000046E010E036EDCEC03F0000E786E1200D3
:100A70007850000AD8B4A0D7010AD8B4B4D7030A72
:100A8000D8B4C8D7010AD8B4DCD7EFD783CF06F0E3
:100A90000F0E9512000E0A6EF80E93160AC001F0A2
:100AA000010E026E012A02D0D8900236012EFCD728
:100AB00002509312070E81120AC001F0010E026E5D
:100AC000012A02D0D8900236012EFCD70250FF0A2C
:100AD0008116000E086E000E076E074A082A08BE2F
:100AE000FCD7085004E10A0E075CD8A0F6D7000E28
:100AF000096E09C001F0010E026E012A02D0D890E1
:100B00000236012EFCD7025083140009D8A415D058
:100B10000A50040DF3500924016E010E026E000EFE
:100B2000036E012A03D0D89002360336012EFBD77C
:100B3000025070120350711218D00A50040DF35075
:100B40000924016E010E026E000E036E012A03D00D
:100B5000D89002360336012EFBD7021C046E031C0C
:100B6000056E0450701605507116092A030E0964AB
:100B7000C0D70A2A020E0A648FD770506E1806E199
:100B800071506F18D8A402D0790606D00A0E796E7B
:100B900070C06EF071C06FF07950D8A404D06EC0F0
:100BA00072F06FC073F006C083FF000E956E1200E6
:100BB00021EE40F010EEB9F00F0EDBCFE3FFE806B8
:100BC000FCE2F6C0C9F0F7C0CAF0F8C0CBF0D4EC34
:100BD00007F0800E82EC08F0000E0001CE6FCE51BF
:100BE000B90FD96EDA6ADF500CEC09F00001CE2B98
:100BF0000E0ECE65F4D7C00E82EC08F0000E000198
:100C0000CE6FCE51C90FD96EDA6ADF500CEC09F005
:100C10000001CE2B030ECE65F4D7D9EC09F0E1EC40
:100C200008F046EC05F00001CC516C6E6D6ADEEC0C
:100C300009F06C50011804E16D500218D8B413D0BB
:100C4000DEEC09F001500001CC6FDEEC09F001A8E8
:100C50000AD0030E016E000E97EC09F0010E82EC33
:100C600008F06BEC07F0000E0001CD6FCD2B630E8A
:100C7000CD65FCD7400E82EC08F021EE20F010EE9E
:100C800099F01F0EDBCFE3FFE806FCE2000E000147
:100C9000CE6FCE51990FD96EDA6ADF500CEC09F0A5
:100CA0000001CE2B1F0ECE65F4D7900E82EC08F01B
:100CB000000E0CEC09F0010E0CEC09F0D00E82ECE9
:100CC00008F0020E0CEC09F0030E0CEC09F0A9D7A9
:100CD00020EEE3F010EE49F0090EDBCFE3FFE8066B
:100CE000FCE220EED9F010EE53F0090EDBCFE3FF6B
:100CF000E806FCE220EECFF010EE5DF0090EDBCF4F
:100D0000E3FFE806FCE2800E82EC08F0000E696E5C
:100D10006950490FD96EDA6ADF500CEC09F0692A84
:100D2000080E6964F5D7C00E82EC08F0000E696EFB
:100D30006950530FD96EDA6ADF500CEC09F0692A5A
:100D4000080E6964F5D7900E82EC08F0000E696E0B
:100D500069505D0FD96EDA6ADF500CEC09F0692A30
:100D6000080E6964F5D7AFEC04F046EC05F0675067
:100D7000476E486ADEEC09F04750011804E148501C
:100D80000218D8B42ED0DEEC09F00150676EDEEC0C
:100D900009F001A40AD0030E016E040E97EC09F0CD
:100DA000010E82EC08F0F8EC06F0DEEC09F001AC84
:100DB0000AD0030E016E050E97EC09F0010E82ECCD
:100DC00008F0F8EC06F0DEEC09F002A40AD0030EFD
:100DD000016E060E97EC09F0010E82EC08F0F8ECBB
:100DE00006F0000E686E682A630E6864FCD7BBD7F5
:100DF000000E956E21EE6CF010EE3BF00A0EDBCF8C
:100E0000E3FFE806FCE221EE50F010EE2DF00D0EAF
:100E1000DBCFE3FFE806FCE2010E82EC08F0800E77
:100E200082EC08F0000E466E46503B0FD96EDA6A2F
:100E3000DF500CEC09F0462A090E4664F5D7BFECEA
:100E400009F0630E4CEC08F0C80E5FEC09F0C80E18
:100E50005FEC09F0000E4CEC08F0AFEC04F0C00EB3
:100E600082EC08F0000E466E46502D0FD96EDA6AFD
:100E7000DF500CEC09F0462A0C0E4664F5D7400E04
:100E800082EC08F021EE00F010EE0DF01F0EDBCF2B
:100E9000E3FFE806FCE2000E466E46500D0FD96EE9
:100EA000DA6ADF500CEC09F0462A1F0E4664F5D7CB
:100EB000900E82EC08F0000E0CEC09F0010E0CEC28
:100EC00009F0D00E82EC08F0020E0CEC09F0030ED3
:100ED0000CEC09F0C2D720EEEDF010EE8EF0080E0B
:100EE000DBCFE3FFE806FCE221EE5EF010EE80F0DF
:100EF0000D0EDBCFE3FFE806FCE2800E82EC08F08B
:100F0000000E0001986F98518E0FD96EDA6ADF508B
:100F10000CEC09F00001982B070E9865F4D7C00E71
:100F200082EC08F0000E0001986F9851800FD96E86
:100F3000DA6ADF500CEC09F00001982B0C0E986572
:100F4000F4D7AFEC04F046EC05F0000197516A6E5F
:100F50006B6ADEEC09F06A50011804E16B5002186C
:100F6000D8B4EFD7DEEC09F001500001976FDEEC4A
:100F700009F001A60AD0030E016E010E97EC09F0EC
:100F8000010E82EC08F068EC06F0DEEC09F001AE30
:100F9000D8D7030E016E020E97EC09F0010E82EC19
:100FA00008F068EC06F0CDD7000E026E220E016E3E
:100FB000000E046E000E036E09EC03F0000E026ECC
:100FC000210E016E000E046E000E036E09EC03F09C
:100FD000000E956EC9EC09F0C9EC09F0C9EC09F0F6
:100FE000C9EC09F0C9EC09F0380E82EC08F0C9EC44
:100FF00009F0C9EC09F0380E82EC08F0C9EC09F0F0
:10100000380E82EC08F0380E82EC08F0060E82EC06
:1010100008F00C0E82EC08F0010E82EC08F01200D1
:1010200001030307070F0F1F1018181C1C1E1E1F9B
:101030000F0F0703000000001E1E1C180000000018
:1010400001030307070F0F1F1018181C1C1E1E1F7B
:101050000F0F0703000000001E1E1C1800000000F8
:101060004D617175696E612064652043616665003C
:1010700050656469646F2050726F6E746F004361D5
:1010800070756363696E6F202832290046617A6546
:071090006E646F2E2E2E008E
:101098000A6E010ECB24016E026A000E02220AC0FB
:1010A80003F0046AACEC09F001C00BF002C00CF0CC
:1010B8000BC001F00CC002F0000E046E190E036E96
:1010C80036EC09F001C00BF002C00CF0FF0E0B1655
:1010D800030E0C160BC008F00CC009F0D8900932AA
:1010E8000832D890093208320850BE6E0BC008F09A
:1010F800030E08160838F00BBD121200086E83CFD5
:1011080007F0000E956E000E026E220E016E000EA4
:10111800046E000E036EDCEC03F008C083FF000EC3
:10112800026E210E016E000E046E010E036EDCECE1
:1011380003F0000E026E210E016E000E046E000E0A
:10114800036EDCEC03F007C083FF020E0818D8B466
:1011580003D00804D8A403D0C9EC09F01200D2ECDB
:1011680009F01200200EF66E100EF76E000EF86EE3
:1011780001EE00F010EE77F00900F5CFEEFFE55034
:10118800E150FAE1040EF66E130EF76E000EF86EDB
:1011980000EECFF010EE2AF00900F5CFEEFFE55093
:1011A800E150FAE100EE6EF00C0EEE6AE806FDE1A1
:1011B800000EF86E0001D8EF05F0000E026E020E68
:1011C800016E000E046E000E036E09EC03F0000EB3
:1011D800026E030E016E000E046E000E036E09EC23
:1011E80003F0000E026E040E016E000E046E000E77
:1011F800036E09EC03F0000E026E050E016E000E80
:10120800046E000E036E09EC03F0000E956E1200DA
:10121800076E83CF08F0000E956E000E026E220E48
:10122800016E000E046E010E036EDCEC03F007C0C5
:1012380083FF000E026E210E016E000E046E010E79
:10124800036EDCEC03F0000E026E210E016E000E40
:10125800046E000E036EDCEC03F008C083FFD2ECD2
:1012680009F01200000E066E000E056E0350041001
:10127800D8B41CD0010E076E04D0D89003360436BB
:10128800072A04AEFAD7D890053606360350015C13
:1012980004500258D8A005D00350015E0450025AE9
:1012A8000580D89004320332072EEDD705C001F02F
:1012B80006C002F01200086E000E096E1AD0000E69
:1012C8000C6E11D0000E0A6E08D0000E0B6E01D005
:1012D8000B2A020E0B64FCD70A2A280E0A64F5D7DB
:1012E800AFEC04F00C2A270E0C64ECD7AFEC04F03A
:1012F800092A0850095CD8B01200E1D74672616328
:101308006F20283629004D6564696F20283529002B
:10131800466F727465202834290043616665202869
:10132800312900283029026E0150D8B402C077F064
:101338000104D8B402C076F0020E0118D8B402C075
:1013480075F0030E0118D8A4120002C074F0120040
:1013580001500302F3CF05F0F4CF06F00150040268
:10136800F350062602500302F350062605C001F08A
:1013780006C002F0120094929494030ECA12CA8412
:101388000C0EBD120C0EBA121200000E026ED2EC38
:1013980009F0022A310E0264FAD71200000E016E1B
:1013A800012A180E0164FCD71200070E93160F0EBF
:0E13B8009512120072C001F073C002F0120014
:020000040020DA
:08000000FFFFFFFFFFFFFFFF00
:020000040030CA
:0E000000FF021100FF8380FF0FC00FE00F40D2
:00000001FF
